:020000040800F2
:100000000050002021020008270200082B020008EF
:100010009D020008A1020008E9020008000000009B
:100020000000000000000000000000003103000894
:100030003503000800000000390300083D030008F4
:100040004D0300084D0300084D0300084D03000850
:100050004D0300084D0300084D0300084D03000840
:100060004D0300084D0300084D0300084D03000830
:100070004D0300084D0300084D0300084D03000820
:100080004D0300084D0300084D0300084D03000810
:100090004D0300084D0300084D0300084D03000800
:1000A0004D0300084D0300084D0300084D030008F0
:1000B0004D0300084D0300084D0300084D030008E0
:1000C0004D0300084D0300084D0300084D030008D0
:1000D0004D0300083D0E00084D0300084D030008C5
:1000E0004D0300084D0300084D0300080000000008
:1000F0000000000000000000000000000000000000
:1001000000000000000000005FF808F100B583B0B7
:1001100000F0AAF9304B314A1360314A1360314B79
:10012000314A32498B4204D21168196004330432D7
:10013000F7E72A4B1A682E4B9A4200D0FEE7284B6D
:100140001A682C4B9A42F9D1234B2B4A13602B4A45
:1001500013602B4B02E000221A600433294A9342B9
:10016000F9D3254B1B6813B9244B1B6803B1FEE779
:1001700000F086F9694601A800F022F9224C234BD1
:10018000E41AA4100025AC4214DC214C214BE41AE3
:10019000A4100025AC4213DC0099019800F070FE19
:1001A00005461D4C1D4BE41AA410002C0EDC2846FD
:1001B00000F0E2F8154B53F8253098470135E2E797
:1001C000144B53F8253098470135E3E7013C134BB6
:1001D00053F824309847E8E7BABADECA0000002096
:1001E000B000002000000020801E0008B4000020A5
:1001F0007856341232547698B40000205001002012
:10020000B40000205401002078030008780300089F
:1002100078030008780300087803000878030008D2
:1002200008B5FFF773FF00BEFEE71EF0040F0CBF1A
:10023000EFF30880EFF309807146414A10472DE93A
:10024000F04182B004468846124B5E6B9F6B9D6AFC
:100250001B6B13F0020F03D00E4BDB6A002B0CDB81
:100260000D4800F0B5F8CDF800803B4632462946EF
:10027000204600F009F900BEFEE74BF6AB6100F046
:100280007DF90028ECD0034B4FF00042DA6202B057
:10029000BDE8F08100ED00E0E41D000800BEFEE7CF
:1002A0001EF0040F0CBFEFF30880EFF309807146D6
:1002B000244A10472DE9F04182B004468846084B95
:1002C0005E6B9F6B9D6A074800F082F8CDF8008056
:1002D0003B4632462946204600F0D6F800BEFEE7EF
:1002E00000ED00E0F41D00081EF0040F0CBFEFF35A
:1002F0000880EFF309807146134A10472DE9F04159
:1003000082B004468846084B5E6B9F6B9D6A074827
:1003100000F05EF8CDF800803B4632462946204684
:1003200000F0B2F800BEFEE700ED00E0001E00089D
:1003300000BEFEE700BEFEE700BEFEE7704700001D
:100340003F020008B5020008FD02000800BEFEE7FB
:10035000801E000800000020B4000020801E00085D
:100360000000000000000000B40000205401002044
:08037000000000000000000085
:10037800FEE7000008B503460C4A12685AB10B4A5A
:100388001068033323F003030344094A934206D851
:10039800064A136008BD054A06491160EFE701F0F7
:1003A8005FF80C2303604FF0FF30F3E7B80000203C
:1003B800004C00205401002001230360014B0B6016
:1003C800704700BF040000200FB400B583B004AB31
:1003D80053F8042B01938021064801F073F8002894
:1003E80003DD0146034800F037F803B05DF804EB7D
:1003F80004B07047C00000202DE9F04385B00446E2
:100408000F4643560BB10E461EE0042528462146EA
:10041800ABBE0446384605B0BDE8F08314F9011BAD
:1004280004AA1A4402F8101C0133AB42F6D304AAFA
:100438001344002203F8102C4FF00408E946404604
:100448004946ABBE8046761B002EE3D03546102EBB
:1004580028BF10250023E8E708B5FFF7CDFF08BD42
:1004680008B500F0FDF8024A024B9A6008BD00BFCB
:100478000000000800ED00E008B500F019F908BD1B
:10048800F8B504460D4617461E462748FFF79CFF59
:1004980021682648FFF798FF61682548FFF794FF11
:1004A800A1682448FFF790FFE1682348FFF78CFF15
:1004B80021692248FFF788FF61692148FFF784FF17
:1004C800A1692048FFF780FFE1691F48FFF77CFF1B
:1004D8001E48FFF779FF29461D48FFF775FF1D4C99
:1004E800E16A1D48FFF770FF216B1C48FFF76CFF9E
:1004F800E16B1B48FFF768FF15F0800F0AD115F470
:10050800004F0CD11748FFF75FFF06991648FFF711
:100518005BFFF8BD39461548FFF756FFEFE7314650
:100528001348FFF751FFEDE7C81C0008D81C000866
:10053800E81C0008F81C0008081D0008181D000821
:10054800281D0008381D0008481D0008581D00080F
:10055800641D000800ED00E0741D0008841D0008FB
:10056800941D0008C41D0008CC1D0008A41D000827
:10057800B41D000883691A888A4201D00020704798
:100588000268033A012A03D80233836101207047C5
:100598000020704782B00023019300932C4A13680F
:1005A80043F4803313602A4B1B6803F40033009331
:1005B800019B01330193009B1BB9019BB3F5A06F0D
:1005C800F1D1234B1B6813F4003F06D0012300939D
:1005D800009B012B04D002B0704700230093F7E77B
:1005E8001C4B1A6842F010021A601A6822F00302C3
:1005F8001A601A6842F002021A60A3F580535A681A
:100608005A605A685A605A6842F480625A605A6856
:1006180022F47C125A605A6842F4E8125A601A6846
:1006280042F080721A600A4B1B6813F0007FFAD000
:10063800074B5A6822F003025A605A6842F00202D5
:100648005A60034B5B6803F00C03082BF9D1C2E72F
:10065800001002400020024008B5FFF79BFF08BDCC
:1006680008B5104B1A6842F001021A6059680E4A20
:100678000A405A601A6822F0847222F480321A60A2
:100688001A6822F480221A605A6822F4FE025A601C
:100698004FF41F029A60FFF7DFFF044B4FF0006230
:1006A8009A6008BD001002400000FFF800ED00E06D
:1006B8001F4B5B6803F00C03042B15D0082B17D0D5
:1006C8001BB11C4B1C4A1A6002E01A4B1A4A1A60EA
:1006D800174B5B68C3F30313184AD35CDAB21549A6
:1006E8000B68D3400B607047124B134A1A60EFE750
:1006F8000F4A53685268C3F38343023312F4803FAE
:100708000AD00B4A526812F4003F0BD00C4A02FB85
:1007180003F3084A1360DBE7094A02FB03F3054ABF
:100728001360D5E7044A02FB03F3024A1360CFE7DC
:10073800001002401C00002000127A000C0000206B
:1007480000093D0070B4012827D020B1022848D004
:10075800012070BC7047072911D91029F9D8344BEA
:100768005C68A1F10806B6000F21B14024EA010136
:1007780059605C6802FA06F121435960E9E72C4B9D
:100788001C688D000F21A94024EA010119601C682A
:1007980002FA05F121431960DBE7072912D910296C
:1007A80042D824484468A1F108039B000F219940CE
:1007B80024EA01014160446802FA03F121434160DF
:1007C8000020C6E71B4B18688C000F21A14020EAC7
:1007D80001011960186802FA04F101431960002048
:1007E800B7E7072911D9102920D8134B58680839B9
:1007F80089000F248C4020EA04005860586802FAE7
:1008080001F1014359600020A3E70B4B1C688800E5
:100818000F21814024EA010119601C6802FA00F1E5
:1008280021431960002094E7002092E7002090E718
:1008380000080140000C01400010014030B4C368BA
:1008480085685C1B42680368D21AC91A01FB04F167
:1008580091FBF2F1681830BC704700001F2808D9D6
:100868003B2805D82038012303FA00F0044B186010
:100878007047012303FA00F0024B1860704700BF6D
:1008880004E100E000E100E0214B00221A60214968
:100898000A601A6842F001021A601D4B1B6813F0C7
:1008A800020FFAD01A4A136843F480331360184BC6
:1008B8001B6813F4003FFAD0154B1A6822F08072B7
:1008C8001A601A6842F080021A601A6822F48022BC
:1008D8001A601A6842F400221A6004331A681A600F
:1008E8001A681A601A6842F4C0621A601A681A60B4
:1008F8001A681A601A6842F4C0221A601A6842F428
:1009080000321A601A681A601A681A60704700BFC5
:1009180000100240041002400A2813D9A0F10B036A
:10092800DBB2152B17D9A0F12103DBB21D2B1CD884
:100938000F490B682138012202FA00F018430860B9
:10094800002070470B490B68012202FA00F0184397
:1009580008600020704708490B680B38012202FA2A
:1009680000F018430860002070470120704700BF5E
:100978001C100240141002401810024070B50446C2
:100988000E4615460170427000238370C370012320
:100998000371092229463046FFF7D4FE1EB1012E05
:1009A80026D0204670BD013D062DFAD801A353F884
:1009B80025F000BFD9090008DF090008E50900088B
:1009C800AB090008AB090008EB090008F1090008A9
:1009D8000123E370E5E70223E370E2E70323E37012
:1009E800DFE70123A370DCE70123A370E370D8E7F6
:1009F800052DD6D801A353F825F000BF1D0A00081D
:100A0800270A0008AB090008310A0008370A00085D
:100A18003D0A00080123A3700223E370C1E7012304
:100A2800A3700323E370BCE70123E370B9E7012354
:100A3800A370B6E70123E370B3E700BF08B500F081
:100A480021F800F085F808BD00B583B002AB03E9D2
:100A5800030011460648FFF7F1FE82B29DF8031025
:100A68009DF8020000F0DAF803B05DF804FB00BF5F
:100A780020000020024B53F82030D962704700BF95
:100A88003000002008B549F640410020FFF7F2FF8A
:100A98004FF080439A6942F040029A619A6942F0A5
:100AA80020029A619A6922F008029A61DA6942F092
:100AB8004002DA61DA6942F02002DA61DA6922F08A
:100AC8000802DA619A6942F480429A619A6942F4AA
:100AD80000529A619A6922F480529A61DA6942F462
:100AE8008042DA61DA6942F40052DA61DA6922F4A2
:100AF8008052DA619A6942F008029A619A6942F46E
:100B080000629A61DA6942F00802DA61DA6942F44D
:100B18000062DA611A6A42F001021A621A6A42F045
:100B280010021A621A6A42F480721A621A6A42F44D
:100B380080521A621A6842F080021A605A6942F0BA
:100B480001025A611A6842F001021A6008BD0000E9
:100B580008B549F640410120FFF78CFF2E4B9A69F2
:100B680042F040029A619A6942F020029A619A69B9
:100B780022F008029A61DA6942F04002DA61DA6921
:100B880042F02002DA61DA6922F00802DA619A6931
:100B980042F480429A619A6942F400529A619A69D1
:100BA80022F480529A61DA6942F48042DA61DA69A1
:100BB80042F40052DA61DA6922F48052DA619A6901
:100BC80042F008029A619A6942F400629A61DA690D
:100BD80042F00802DA61DA6942F40062DA611A6AFC
:100BE80042F001021A621A6A42F010021A621A6A84
:100BF80042F480721A621A6A42F480521A621A68BF
:100C080042F080021A605A6942F001025A611A6879
:100C180042F001021A6008BD00040040032916D8FA
:100C2800DFE801F002070C11094B53F820305A6332
:100C38007047074B53F820309A637047044B53F8BA
:100C48002030DA637047024B53F820301A6470473B
:100C5800300000202DE9F041002460E0324FA3006D
:100C680023449E00BD19686800F032FA8046B85BDC
:100C780000F02EFA0146404600F036FB074600F029
:100C8800CFFB80B2294E56F82420936803F00F0357
:100C9800936056F82420936843EA0013936000F0A9
:100CA8001BFA0146384600F061F94FF0834100F025
:100CB80067FA56F82420936823F00F031B041B0CD3
:100CC800936056F82480D8F8087000F0A9FB80B229
:100CD8000743C8F8087056F824200023D36013612E
:100CE8005361297A6B7A1B0343EA4133A97A43EAB1
:100CF8008123A97B43EA8113E97B43EA4113E97A1B
:100D080043EAC103297B43EA8103287C697C890182
:100D180041EAC011D360136151610134E4B2022C7D
:100D28009CD9BDE8F08100BF101E000840000020DB
:100D3800012811D018B102281BD000207047134B8E
:100D48005960124B1B6813F0800FFAD00F4A1368D2
:100D580023F080031360F0E70D4B59600C4B1B68C0
:100D680013F0800FFAD00A4A136823F08003136047
:100D7800E3E7084B5960074B1B6813F0800FFAD064
:100D8800044A136823F080031360D6E70038014053
:100D98000044004000480040012811D018B1022842
:100DA8001BD000207047134B1B6813F0200FFAD09C
:100DB800104B5A680A701A6822F020021A60F0E78D
:100DC8000D4B1B6813F0200FFAD00B4B5A680A70B2
:100DD8001A6822F020021A60E3E7084B1B6813F038
:100DE800200FFAD0054B5A680A701A6822F02002C0
:100DF8001A60D6E70038014000440040004800402F
:100E0800012803D040B102280CD07047084AD368A3
:100E180023F02003D3607047054AD36823F04003CA
:100E2800D3607047024AD36823F08003D3607047C9
:100E38000038014008B50C4B1B6813F0800F0CD12B
:100E4800094B1B6813F0200F06D0074B5A68074B55
:100E58001A70074B01221A7008BD064B00221A703F
:100E68000220FFF7CDFFEBE70038014041010020E9
:100E7800400100204201002000B58FB0FFF704FDBB
:100E88000D20FFF749FD0E20FFF746FD0F20FFF765
:100E980043FD1920FFF740FD3220FFF73DFD2520D7
:100EA800FFF7DCFC2120FFF737FD2220FFF734FD98
:100EB800062200210CA8FFF761FD072200210AA8DD
:100EC800FFF75CFD0022012108A8FFF757FD01226A
:100ED800114606A8FFF752FD0122002104A8FFF7DA
:100EE8004DFD0022114602A8FFF748FDFFF7B2FEAC
:100EF800092211460020FFF725FC04220A210020C0
:100F0800FFF720FC092202210020FFF71BFC042226
:100F180003210020FFF716FCFFF790FD00238DF852
:100F2800073048210120FFF703FF69210120FFF75F
:100F3800FFFE05E0B42202AB93E80300FFF784FD4F
:100F48000DF107010120FFF727FF9DF80730612BFE
:100F5800F0D0622BF4D1002202AB93E80300FFF734
:100F680073FDEDE780F0004002E000BF81F0004132
:100F780042001FBF5FEA410392EA030F7FEA226C37
:100F88007FEA236C6AD04FEA1262D2EB1363C1BFC7
:100F9800D218414048404140B8BF5B42192B88BF36
:100FA800704710F0004F40F4000020F07F4018BF59
:100FB800404211F0004F41F4000121F07F4118BF79
:100FC800494292EA030F3FD0A2F1010241FA03FC21
:100FD80010EB0C00C3F1200301FA03F100F0004309
:100FE80002D5494260EB4000B0F5000F13D3B0F1D1
:100FF800807F06D340084FEA310102F10102FE2A40
:1010080051D2B1F1004F40EBC25008BF20F00100AF
:1010180040EA03007047490040EB000010F4000F5D
:10102800A2F10102EDD1B0FA80FCACF1080CB2EBF0
:101038000C0200FA0CF0AABF00EBC250524218434F
:10104800BCBFD0401843704792F0000F81F40001F4
:1010580006BF80F400000132013BB5E74FEA4103C7
:101068007FEA226C18BF7FEA236C21D092EA030F33
:1010780004D092F0000F08BF0846704790EA010FAD
:101088001CBF0020704712F07F4F04D1400028BFDA
:1010980040F00040704712F100723CBF00F50000BC
:1010A800704700F0004343F0FE4040F400007047F2
:1010B8007FEA226216BF08467FEA2363014642029E
:1010C80006BF5FEA412390EA010F40F480007047B1
:1010D8004FF0000304E000BF10F0004348BF404257
:1010E8005FEA000C08BF704743F0964301464FF093
:1010F80000001CE050EA010208BF70474FF00003EF
:101108000AE000BF50EA010208BF704711F000432F
:1011180002D5404261EB41015FEA010C02BF8446FF
:101128000146002043F0B64308BFA3F18053A3F55E
:101138000003BCFA8CF2083AA3EBC25310DB01FAA5
:1011480002FC634400FA02FCC2F12002BCF1004F29
:1011580020FA02F243EB020008BF20F001007047BA
:1011680002F1200201FA02FCC2F1200250EA4C000E
:1011780021FA02F243EB020008BF20EADC70704754
:101188004FF0FF0C1CEAD0521EBF1CEAD15392EA62
:101198000C0F93EA0C0F6FD01A4480EA010C40023E
:1011A80018BF5FEA41211ED04FF0006343EA501098
:1011B80043EA5111A0FB01310CF00040B1F5000FDA
:1011C8003EBF490041EAD3715B0040EA010062F189
:1011D8007F02FD2A1DD8B3F1004F40EBC25008BF73
:1011E80020F00100704790F0000F0CF0004C08BF91
:1011F80049024CEA502040EA51207F3AC2BFD2F15E
:10120800FF0340EAC250704740F400004FF000036B
:10121800013A5DDC12F1190FDCBF00F000407047A5
:10122800C2F10002410021FA02F1C2F1200200FAE3
:1012380002FC5FEA310040F1000053EA4C0308BFAA
:1012480020EADC70704792F0000F00F0004C02BFFB
:10125800400010F4000F013AF9D040EA0C0093F076
:10126800000F01F0004C02BF490011F4000F013BD0
:10127800F9D041EA0C018FE70CEAD15392EA0C0F3E
:1012880018BF93EA0C0F0AD030F0004C18BF31F0A9
:10129800004CD8D180EA010000F00040704790F07F
:1012A800000F17BF90F0004F084691F0000F91F023
:1012B800004F14D092EA0C0F01D142020FD193EAE9
:1012C8000C0F03D14B0218BF084608D180EA010071
:1012D80000F0004040F0FE4040F40000704740F04D
:1012E800FE4040F4400070474FF0FF0C1CEAD0521B
:1012F8001EBF1CEAD15392EA0C0F93EA0C0F69D077
:10130800A2EB030280EA010C49024FEA402037D0E1
:101318004FF0805343EA111143EA10130CF00040D8
:101328008B4238BF5B0042F17D024FF4000C8B42C8
:1013380024BF5B1A40EA0C00B3EB510F24BFA3EBA8
:10134800510340EA5C00B3EB910F24BFA3EB910378
:1013580040EA9C00B3EBD10F24BFA3EBD10340EAD2
:10136800DC001B0118BF5FEA1C1CE0D1FD2A3FF618
:1013780050AF8B4240EBC25008BF20F001007047CD
:101388000CF0004C4CEA50207F32C2BFD2F1FF0370
:1013980040EAC250704740F400004FF00003013AA1
:1013A80037E792F0000F00F0004C02BF400010F445
:1013B800000F013AF9D040EA0C0093F0000F01F059
:1013C800004C02BF490011F4000F013BF9D041EA7B
:1013D8000C0195E70CEAD15392EA0C0F08D14202AE
:1013E8007FF47DAF93EA0C0F7FF470AF084676E781
:1013F80093EA0C0F04D14B023FF44CAF08466EE75A
:1014080030F0004C18BF31F0004CCAD130F0004227
:101418007FF45CAF31F000437FF43CAF5FE700BF7F
:1014280042000ED2B2F1FE4F0BD34FF09E03B3EB46
:10143800126209D44FEA002343F0004323FA02F072
:1014480070474FF00000704712F1610F01D142025E
:1014580002D14FF0FF3070474FF00000704700BFD7
:10146800014B1868704700BF4C00002030B5141EAF
:1014780005469BB0184605DA8B234FF0FF302B60EA
:101488001BB030BD4FF40273ADF80C300CBF2346CF
:1014980004F1FF33029305934FF6FF730091049113
:1014A800ADF80E3002461E9B6946284600F072F8D9
:1014B800431CBCBF8B232B60002CE1D00022009B77
:1014C8001A70DDE707B5009313460A46014603483C
:1014D8000068FFF7CBFF03B05DF804FB4C00002069
:1014E8002DE9F0478E6882469E420C469046994602
:1014F80037D88A8912F4906F31D002232568096998
:101508006F1A656905EB450595FBF3F509F10103CC
:101518003B449D4238BF1D46530530D5294600F04F
:1015280035FB064650B90C234FF0FF30CAF800309F
:10153800A38943F04003A381BDE8F0873A462169B7
:1015480000F0B4FAA38923F4906343F08003A381E5
:1015580026613E4426604E466561ED1BA5604E45FA
:1015680000D94E4632464146206800F0AAFAA368E0
:1015780000209B1BA36023681E442660DCE72A46E4
:1015880000F05EFB06460028E2D12169504600F0D3
:10159800B1FAC8E72DE9F04F9DB003938B898046D7
:1015A8001D060C4616460FD50B696BB9402100F095
:1015B800EDFA2060206128B90C23C8F800304FF0FC
:1015C800FF30C7E0402363610023099320238DF88F
:1015D800293030234FF0010B8DF82A3037463D462D
:1015E80015F8013B0BB1252B3ED1B7EB060A0BD002
:1015F8005346324621464046FFF772FF013000F05D
:10160800A480099B534409933B78002B00F09D80EC
:1016180000234FF0FF32CDE90523049307938DF89B
:1016280053301A932F46052217F8011B4F4800F034
:101638002FFA049BD0B9D90644BF20228DF8532035
:101648001A0744BF2B228DF853202A782A2A15D04E
:101658002F4600200A25079A394611F8013B303BEE
:10166800092B4DD9B8B10FE02F46B8E73F4A3D46A0
:10167800801A0BFA00F018430490D3E7039A111D5F
:1016880012680391002A01DB079204E0524243F0FA
:101698000203079204933B782E2B0CD17B782A2BDC
:1016A80033D1039B02371A1D1B680392002BB8BF66
:1016B8004FF0FF3305932E4D03223978284600F06A
:1016C800E7F938B14023401B03FA00F0049B0137C7
:1016D800034304933978062226487E1C8DF8281087
:1016E80000F0D6F9002838D0234B13BB039B0733EF
:1016F80023F0070308330393099B4B4409936DE7D1
:1017080005FB023201200F46A6E700230A251946E9
:1017180001370593384610F8012B303A092A03D9C6
:10172800002BC8D00591C6E705FB01210123074618
:10173800F0E703AB00932246104B04A94046AFF3F1
:101748000080B0F1FF3F8146D6D1A3895B063FF503
:1017580036AF09981DB0BDE8F08F03AB0093224661
:10176800064B04A9404600F081F8EAE74C1E000841
:10177800521E0008561E000800000000E914000868
:101788002DE9F04791461F468A680B690646934241
:10179800B8BF1346C9F8003091F843200C46DDF86D
:1017A800208012B10133C9F800302368990642BF7E
:1017B800D9F800300233C9F80030256815F006055D
:1017C80007D104F1190AE368D9F800209B1AAB4243
:1017D80029DC94F843302268003318BF01239206AD
:1017E8002ED404F1430239463046C047013021D097
:1017F8002368E56803F00603042B18BF0025D9F811
:1018080000204FF0000908BFAD1AA368226908BF7D
:1018180025EAE5759342C4BF9B1AED181A344D4565
:101828001AD1002008E00123524639463046C04705
:10183800013003D14FF0FF30BDE8F0870135C2E732
:101848003020E11881F843005A1C94F845102244CE
:10185800023382F84310C4E7012322463946304652
:10186800C0470130E6D009F10109D8E72DE9F04376
:1018780001F1430C0C46097E85B06E2917460646D1
:1018880098460C9A00F0B38022D8632936D00AD83B
:10189800002900F0B980582900F0838004F142053E
:1018A80084F8421032E0642901D06929F6D1206811
:1018B8001368050603F104012AD51B681160002B83
:1018C80003DA2D225B4284F843206F480A2239E06C
:1018D800732900F09D8008D86F2920D07029DDD1A8
:1018E800236843F02003236003E0752917D0782983
:1018F800D4D17823654884F8453055E0136804F15D
:101908004205191D1B68116084F8423001238CE0E0
:101918001B6810F0400F116018BF1BB2CFE71368A7
:101928002568181D1060280601D51B6802E06806A6
:10193800FBD51B886F2914BF0A22082252480021B0
:1019480084F843106568002DA560C0F29580216871
:1019580021F004012160002B3DD1002D40F08E8044
:101968006546082A0BD12368DB0708D52369626816
:101978009A42DEBF302305F8013C05F1FF35ACEB98
:1019880005032361CDF800803B4603AA2146304673
:10199800FFF7F6FE01304DD14FF0FF3005B0BDE83E
:1019A800F083394884F84510136821681D1D1B68A9
:1019B80015600A060BD5CA0744BF41F02001216013
:1019C8001BB9226822F0200222601022B7E74D06D8
:1019D80048BF9BB2EFE76546B3FBF2F102FB113358
:1019E800C35C05F8013D0B460029F5D1B9E713683A
:1019F8002568181D6169106028061B6801D51960E3
:101A080002E06A06FBD51980002365462361B9E721
:101A18001368191D11601D6862680021284600F0CE
:101A280037F808B1401B606063682361002384F8BD
:101A38004330A7E723692A4639463046C047013074
:101A4800AAD023689B0713D4E068039B9842B8BFC9
:101A58001846A3E701234A4639463046C0470130B5
:101A68009AD00135E368039A9B1AAB42F2DCEBE7A4
:101A7800002504F11909F5E7002BACD1037804F12E
:101A8800420584F842306CE75D1E00086E1E0008AF
:101A980010B5C9B202449042034601D1002303E0C5
:101AA8001C7801308C42F6D1184610BD10B5431E83
:101AB8000A44914200D110BD11F8014B03F8014FBF
:101AC800F7E7884210B501EB020307D8421E994296
:101AD8000AD011F8014B02F8014FF8E78342F5D913
:101AE8008118D21AD34200D110BD13F8014D01F864
:101AF800014DF7E738B50546002943D051F8043CB5
:101B08000C1F002BB8BFE41800F0D0F81E4A136869
:101B1800104633B9636014602846BDE8384000F0C9
:101B2800C6B8A3420BD921686218934201BF1A684C
:101B38005B685218226063600460EDE713465A68D8
:101B48000AB1A242FAD919685818A0420BD12068E4
:101B58000144581882421960DED110685268014465
:101B680019605A60D8E702D90C232B60D4E72068A3
:101B780021188A4201BF1168526809182160626001
:101B88005C60C9E738BD00BF4401002070B5CD1CBA
:101B980025F0030508350C2D38BF0C25002D064609
:101BA80001DBA94203D90C233360002070BD00F08B
:101BB8007DF8214A1468214691B9204C23681BB945
:101BC800304600F063F820602946304600F05EF8A1
:101BD800431C24D10C233046336000F068F8E4E756
:101BE8000B685B1B18D40B2B0FD90B60CC18CD508E
:101BF800304600F05CF804F10B00231D20F00700CC
:101C0800C31AD3D05A42E250D0E74B688C4216BF71
:101C1800636013600C46EBE70C464968CCE7C41CCC
:101C280024F00304A04205D0211A304600F02EF813
:101C38000130CFD02560DBE74401002048010020B7
:101C4800F8B5074614460E4621B9BDE8F8401146D6
:101C5800FFF79CBF22B9FFF74DFF25462846F8BD80
:101C680000F026F8A0420FD221463846FFF78EFF33
:101C780005460028F2D031462246FFF717FF3146C5
:101C88003846FFF737FFE9E73546E7E738B5002379
:101C9800054C054608462360FEF76CFB431C02D141
:101CA800236803B12B6038BD4C0100207047704792
:101CB80051F8043C181F002BBCBF0B58C0187047C4
:101CC800537461636B206672616D653A0A000000A7
:101CD800205230203D2020253038580A00000000CE
:101CE800205231203D2020253038580A00000000BD
:101CF800205232203D2020253038580A00000000AC
:101D0800205233203D2020253038580A000000009A
:101D180020523132203D20253038580A000000007A
:101D2800204C52203D2020253038580A0000000061
:101D3800205043203D2020253038580A000000005C
:101D480020505352203D20253038580A000000000A
:101D58004653522F4641523A0A0000002043465348
:101D680052203D2020253038580A0000204846538C
:101D780052203D2020253038580A00002044465380
:101D880052203D2020253038580A00002041465373
:101D980052203D2020253038580A0000204D4D465D
:101DA8004152203D20253038580A00002042464143
:101DB80052203D2020253038580A00004D697363B1
:101DC8000A000000204C522F4558435F5245545595
:101DD800524E3D20253038580A0000005B48617299
:101DE800644661756C745D0A000000005B4275739F
:101DF8004661756C745D0A005B5573616765466181
:101E0800756C745D0A0000008025000020A10700A1
:101E18000100000101000000010100008025000010
:101E280024F400000100000101000000010100008D
:101E38008025000024F400000000000101000000DB
:101E480001010000232D302B2000686C4C006566D2
:101E580067454647003031323334353637383941F3
:101E68004243444546003031323334353637383909
:071E7800616263646566000E
:101E800078563412BC000020000000000000000062
:101E900000000000010203040607080900A24A042A
:101EA00000000000640000008A020000B80B00007F
:101EB000000000400004004000080040000C00400A
:101EC000003801400044004000480040500000201D
:101ED0000000000000000000000000000000000002
:101EE00000000000000000000000000000000000F2
:101EF00000000000000000000000000000000000E2
:101F000000000000000000000000000000000000D1
:101F100000000000000000000000000000000000C1
:101F200000000000000000000000000000000000B1
:041F30003254769819
:040000050800010DE1
:00000001FF
